{
  "contractName": "Bet",
  "abi": [
    {
      "inputs": [
        {
          "internalType": "uint256",
          "name": "_firstDay",
          "type": "uint256"
        },
        {
          "internalType": "uint256",
          "name": "_contestPeriod",
          "type": "uint256"
        },
        {
          "internalType": "address",
          "name": "_dai",
          "type": "address"
        },
        {
          "internalType": "address[]",
          "name": "_chainlinkTokenAddresses",
          "type": "address[]"
        }
      ],
      "stateMutability": "nonpayable",
      "type": "constructor"
    },
    {
      "anonymous": false,
      "inputs": [
        {
          "indexed": false,
          "internalType": "uint8",
          "name": "day",
          "type": "uint8"
        },
        {
          "indexed": false,
          "internalType": "uint8",
          "name": "tokenId",
          "type": "uint8"
        },
        {
          "indexed": false,
          "internalType": "address",
          "name": "sender",
          "type": "address"
        },
        {
          "indexed": false,
          "internalType": "uint256",
          "name": "value",
          "type": "uint256"
        }
      ],
      "name": "BetPlaced",
      "type": "event"
    },
    {
      "inputs": [],
      "name": "contestPeriod",
      "outputs": [
        {
          "internalType": "uint256",
          "name": "",
          "type": "uint256"
        }
      ],
      "stateMutability": "view",
      "type": "function",
      "constant": true
    },
    {
      "inputs": [],
      "name": "firstDay",
      "outputs": [
        {
          "internalType": "uint256",
          "name": "",
          "type": "uint256"
        }
      ],
      "stateMutability": "view",
      "type": "function",
      "constant": true
    },
    {
      "inputs": [
        {
          "internalType": "uint8",
          "name": "_tokenId",
          "type": "uint8"
        },
        {
          "internalType": "uint256",
          "name": "amt",
          "type": "uint256"
        }
      ],
      "name": "placeBet",
      "outputs": [],
      "stateMutability": "nonpayable",
      "type": "function"
    },
    {
      "inputs": [
        {
          "internalType": "uint8",
          "name": "_day",
          "type": "uint8"
        }
      ],
      "name": "payout",
      "outputs": [],
      "stateMutability": "payable",
      "type": "function",
      "payable": true
    },
    {
      "inputs": [],
      "name": "getTimestamp",
      "outputs": [
        {
          "internalType": "uint256",
          "name": "",
          "type": "uint256"
        }
      ],
      "stateMutability": "nonpayable",
      "type": "function"
    },
    {
      "inputs": [
        {
          "internalType": "uint8",
          "name": "_day",
          "type": "uint8"
        }
      ],
      "name": "getDayRankingFromChainlink",
      "outputs": [
        {
          "internalType": "int256[]",
          "name": "",
          "type": "int256[]"
        },
        {
          "internalType": "uint8[]",
          "name": "",
          "type": "uint8[]"
        }
      ],
      "stateMutability": "view",
      "type": "function",
      "constant": true
    },
    {
      "inputs": [],
      "name": "saveCurrentDayRankingFromChainlink",
      "outputs": [],
      "stateMutability": "nonpayable",
      "type": "function"
    },
    {
      "inputs": [
        {
          "internalType": "uint256",
          "name": "tokenId",
          "type": "uint256"
        }
      ],
      "name": "getLatestTokenPrice",
      "outputs": [
        {
          "internalType": "int256",
          "name": "",
          "type": "int256"
        }
      ],
      "stateMutability": "nonpayable",
      "type": "function"
    },
    {
      "inputs": [
        {
          "internalType": "uint8",
          "name": "_day",
          "type": "uint8"
        },
        {
          "internalType": "uint8",
          "name": "_tokenId",
          "type": "uint8"
        }
      ],
      "name": "getDayTokenPrices",
      "outputs": [
        {
          "internalType": "int256",
          "name": "",
          "type": "int256"
        },
        {
          "internalType": "int256",
          "name": "",
          "type": "int256"
        }
      ],
      "stateMutability": "nonpayable",
      "type": "function"
    },
    {
      "inputs": [
        {
          "internalType": "uint8",
          "name": "_day",
          "type": "uint8"
        }
      ],
      "name": "getDayState",
      "outputs": [
        {
          "internalType": "enum Bet.DayState",
          "name": "",
          "type": "uint8"
        }
      ],
      "stateMutability": "nonpayable",
      "type": "function"
    },
    {
      "inputs": [
        {
          "internalType": "uint8",
          "name": "_day",
          "type": "uint8"
        },
        {
          "internalType": "uint8",
          "name": "_tokenId",
          "type": "uint8"
        }
      ],
      "name": "getTotalAmountTokenDay",
      "outputs": [
        {
          "internalType": "uint256",
          "name": "",
          "type": "uint256"
        }
      ],
      "stateMutability": "view",
      "type": "function",
      "constant": true
    },
    {
      "inputs": [
        {
          "internalType": "uint8",
          "name": "_day",
          "type": "uint8"
        }
      ],
      "name": "getMyBetsDay",
      "outputs": [
        {
          "internalType": "uint256[]",
          "name": "",
          "type": "uint256[]"
        }
      ],
      "stateMutability": "view",
      "type": "function",
      "constant": true
    },
    {
      "inputs": [
        {
          "internalType": "uint8",
          "name": "_day",
          "type": "uint8"
        }
      ],
      "name": "getMyDayWins",
      "outputs": [
        {
          "internalType": "uint256",
          "name": "",
          "type": "uint256"
        }
      ],
      "stateMutability": "view",
      "type": "function",
      "constant": true
    },
    {
      "inputs": [
        {
          "internalType": "uint8",
          "name": "_day",
          "type": "uint8"
        }
      ],
      "name": "getMyDayPaid",
      "outputs": [
        {
          "internalType": "bool",
          "name": "",
          "type": "bool"
        }
      ],
      "stateMutability": "nonpayable",
      "type": "function"
    },
    {
      "inputs": [
        {
          "internalType": "uint8",
          "name": "_day",
          "type": "uint8"
        }
      ],
      "name": "getDayGrandPrize",
      "outputs": [
        {
          "internalType": "uint256",
          "name": "",
          "type": "uint256"
        }
      ],
      "stateMutability": "view",
      "type": "function",
      "constant": true
    },
    {
      "inputs": [],
      "name": "getCurrentDay",
      "outputs": [
        {
          "internalType": "uint8",
          "name": "",
          "type": "uint8"
        }
      ],
      "stateMutability": "nonpayable",
      "type": "function"
    }
  ],
  "bytecode": "0x60806040523480156200001157600080fd5b506040516200292438038062002924833981810160405260808110156200003757600080fd5b81019080805190602001909291908051906020019092919080519060200190929190805160405193929190846401000000008211156200007657600080fd5b838201915060208201858111156200008d57600080fd5b8251866020820283011164010000000082111715620000ab57600080fd5b8083526020830192505050908051906020019060200280838360005b83811015620000e4578082015181840152602081019050620000c7565b50505050905001604052505050836002819055508260038190555081600160006101000a81548173ffffffffffffffffffffffffffffffffffffffff021916908373ffffffffffffffffffffffffffffffffffffffff160217905550805167ffffffffffffffff811180156200015957600080fd5b50604051908082528060200260200182016040528015620001895781602001602082028036833780820191505090505b5060009080519060200190620001a19291906200023c565b5060005b81518160ff1610156200023157818160ff1681518110620001c257fe5b602002602001015160008260ff1681548110620001db57fe5b9060005260206000200160006101000a81548173ffffffffffffffffffffffffffffffffffffffff021916908373ffffffffffffffffffffffffffffffffffffffff1602179055508080600101915050620001a5565b505050505062000308565b828054828255906000526020600020908101928215620002b8579160200282015b82811115620002b75782518260006101000a81548173ffffffffffffffffffffffffffffffffffffffff021916908373ffffffffffffffffffffffffffffffffffffffff160217905550916020019190600101906200025d565b5b509050620002c79190620002cb565b5090565b5b808211156200030457600081816101000a81549073ffffffffffffffffffffffffffffffffffffffff021916905550600101620002cc565b5090565b61260c80620003186000396000f3fe6080604052600436106100f35760003560e01c806393f63d251161008a578063cf1405fe11610059578063cf1405fe146104f7578063d96fe97d14610522578063d9b0270114610574578063dcb3b30e146105c6576100f3565b806393f63d2514610305578063a48c576b1461036b578063a6c9fcd914610446578063b00bee711461049a576100f3565b806339118731116100c657806339118731146101de5780633e6968b6146101f5578063481a117a146102235780635739e27d146102b6576100f3565b8063071a2b52146100f85780630e6b975214610123578063153f2b4b14610182578063188ec356146101b3575b600080fd5b34801561010457600080fd5b5061010d61060e565b6040518082815260200191505060405180910390f35b34801561012f57600080fd5b5061016c6004803603604081101561014657600080fd5b81019080803560ff169060200190929190803560ff169060200190929190505050610614565b6040518082815260200191505060405180910390f35b6101b16004803603602081101561019857600080fd5b81019080803560ff169060200190929190505050610646565b005b3480156101bf57600080fd5b506101c8610d86565b6040518082815260200191505060405180910390f35b3480156101ea57600080fd5b506101f3610d8e565b005b34801561020157600080fd5b5061020a611011565b604051808260ff16815260200191505060405180910390f35b34801561022f57600080fd5b5061025f6004803603602081101561024657600080fd5b81019080803560ff16906020019092919050505061103a565b6040518080602001828103825283818151815260200191508051906020019060200280838360005b838110156102a2578082015181840152602081019050610287565b505050509050019250505060405180910390f35b3480156102c257600080fd5b506102ef600480360360208110156102d957600080fd5b8101908080359060200190929190505050611135565b6040518082815260200191505060405180910390f35b34801561031157600080fd5b5061034e6004803603604081101561032857600080fd5b81019080803560ff169060200190929190803560ff1690602001909291905050506111fb565b604051808381526020018281526020019250505060405180910390f35b34801561037757600080fd5b506103a76004803603602081101561038e57600080fd5b81019080803560ff169060200190929190505050611256565b604051808060200180602001838103835285818151815260200191508051906020019060200280838360005b838110156103ee5780820151818401526020810190506103d3565b50505050905001838103825284818151815260200191508051906020019060200280838360005b83811015610430578082015181840152602081019050610415565b5050505090500194505050505060405180910390f35b34801561045257600080fd5b506104826004803603602081101561046957600080fd5b81019080803560ff169060200190929190505050611364565b60405180821515815260200191505060405180910390f35b3480156104a657600080fd5b506104d6600480360360208110156104bd57600080fd5b81019080803560ff16906020019092919050505061148e565b604051808260038111156104e657fe5b815260200191505060405180910390f35b34801561050357600080fd5b5061050c6114f1565b6040518082815260200191505060405180910390f35b34801561052e57600080fd5b5061055e6004803603602081101561054557600080fd5b81019080803560ff1690602001909291905050506114f7565b6040518082815260200191505060405180910390f35b34801561058057600080fd5b506105b06004803603602081101561059757600080fd5b81019080803560ff1690602001909291905050506118ed565b6040518082815260200191505060405180910390f35b3480156105d257600080fd5b5061060c600480360360408110156105e957600080fd5b81019080803560ff16906020019092919080359060200190929190505050611913565b005b60035481565b6000600460006106248585611eba565b61ffff1661ffff16815260200190815260200160002060000154905092915050565b6002600381111561065357fe5b61065c8261148e565b600381111561066757fe5b146106da576040517f08c379a00000000000000000000000000000000000000000000000000000000081526004018080602001828103825260198152602001807f53686f756c6420626520696e205041594f55542073746174650000000000000081525060200191505060405180910390fd5b6106e381611ed5565b6109a15760006106f4826000611eba565b905060005b6000805490508161ffff16101561099a57600015156004600084840161ffff1661ffff16815260200190815260200160002060020160003373ffffffffffffffffffffffffffffffffffffffff1673ffffffffffffffffffffffffffffffffffffffff16815260200190815260200160002060009054906101000a900460ff1615151480156107e5575060006004600084840161ffff1661ffff16815260200190815260200160002060010160003373ffffffffffffffffffffffffffffffffffffffff1673ffffffffffffffffffffffffffffffffffffffff16815260200190815260200160002054115b1561098d5760016004600084840161ffff1661ffff16815260200190815260200160002060020160003373ffffffffffffffffffffffffffffffffffffffff1673ffffffffffffffffffffffffffffffffffffffff16815260200190815260200160002060006101000a81548160ff021916908315150217905550600160009054906101000a900473ffffffffffffffffffffffffffffffffffffffff1673ffffffffffffffffffffffffffffffffffffffff1663a9059cbb336004600086860161ffff1661ffff16815260200190815260200160002060010160003373ffffffffffffffffffffffffffffffffffffffff1673ffffffffffffffffffffffffffffffffffffffff168152602001908152602001600020546040518363ffffffff1660e01b8152600401808373ffffffffffffffffffffffffffffffffffffffff16815260200182815260200192505050602060405180830381600087803b15801561095057600080fd5b505af1158015610964573d6000803e3d6000fd5b505050506040513d602081101561097a57600080fd5b8101908080519060200190929190505050505b80806001019150506106f9565b5050610d83565b60006109f482600560008560ff1660ff1681526020019081526020016000206002016000815481106109cf57fe5b90600052602060002090602091828204019190069054906101000a900460ff16611eba565b905060001515600460008361ffff1661ffff16815260200190815260200160002060020160003373ffffffffffffffffffffffffffffffffffffffff1673ffffffffffffffffffffffffffffffffffffffff16815260200190815260200160002060009054906101000a900460ff16151514610ad8576040517f08c379a00000000000000000000000000000000000000000000000000000000081526004018080602001828103825260148152602001807f4164647265737320616c7265616479207061696400000000000000000000000081525060200191505060405180910390fd5b6000600460008361ffff1661ffff16815260200190815260200160002060010160003373ffffffffffffffffffffffffffffffffffffffff1673ffffffffffffffffffffffffffffffffffffffff1681526020019081526020016000205411610b8c576040517f08c379a000000000000000000000000000000000000000000000000000000000815260040180806020018281038252602881526020018061258b6028913960400191505060405180910390fd5b6000600560008460ff1660ff1681526020019081526020016000206000015490506000600460008461ffff1661ffff16815260200190815260200160002060000154905060008183600460008761ffff1661ffff16815260200190815260200160002060010160003373ffffffffffffffffffffffffffffffffffffffff1673ffffffffffffffffffffffffffffffffffffffff168152602001908152602001600020540281610c3857fe5b0490506001600460008661ffff1661ffff16815260200190815260200160002060020160003373ffffffffffffffffffffffffffffffffffffffff1673ffffffffffffffffffffffffffffffffffffffff16815260200190815260200160002060006101000a81548160ff021916908315150217905550600160009054906101000a900473ffffffffffffffffffffffffffffffffffffffff1673ffffffffffffffffffffffffffffffffffffffff1663a9059cbb33836040518363ffffffff1660e01b8152600401808373ffffffffffffffffffffffffffffffffffffffff16815260200182815260200192505050602060405180830381600087803b158015610d4257600080fd5b505af1158015610d56573d6000803e3d6000fd5b505050506040513d6020811015610d6c57600080fd5b810190808051906020019092919050505050505050505b50565b600042905090565b6000610d98611011565b905060005b6000805490508160ff161015610e4d576000610db98383611eba565b90506000610dc98360ff16611135565b90506000600460008461ffff1661ffff168152602001908152602001600020600301541415610e1a5780600460008461ffff1661ffff16815260200190815260200160002060030181905550610e3e565b80600460008461ffff1661ffff168152602001908152602001600020600401819055505b50508080600101915050610d9d565b50606060008054905067ffffffffffffffff81118015610e6c57600080fd5b50604051908082528060200260200182016040528015610e9b5781602001602082028036833780820191505090505b50905060005b6000805490508160ff161015610fa2576000610ebd8483611eba565b9050610ec76123c2565b600460008361ffff1661ffff16815260200190815260200160002060405180606001604052908160008201548152602001600382015481526020016004820154815250509050600080826020015114158015610f2857506000826040015114155b15610f7657610f738260200151610f65620f4240610f5786602001518760400151611f1090919063ffffffff16565b611f9e90919063ffffffff16565b6120c890919063ffffffff16565b90505b80858560ff1681518110610f8657fe5b6020026020010181815250505050508080600101915050610ea1565b5080600560008460ff1660ff1681526020019081526020016000206001019080519060200190610fd39291906123e3565b50610fdd816121fc565b600560008460ff1660ff168152602001908152602001600020600201908051906020019061100c929190612430565b505050565b60008061101c610d86565b9050600060035460025483038161102f57fe5b049050809250505090565b60608060008054905067ffffffffffffffff8111801561105957600080fd5b506040519080825280602002602001820160405280156110885781602001602082028036833780820191505090505b50905060005b6000805490508160ff16101561112b57600460006110ac8684611eba565b61ffff1661ffff16815260200190815260200160002060010160003373ffffffffffffffffffffffffffffffffffffffff1673ffffffffffffffffffffffffffffffffffffffff16815260200190815260200160002054828260ff168151811061111257fe5b602002602001018181525050808060010191505061108e565b5080915050919050565b6000806000838154811061114557fe5b9060005260206000200160009054906101000a900473ffffffffffffffffffffffffffffffffffffffff1690508073ffffffffffffffffffffffffffffffffffffffff166350d25bcd6040518163ffffffff1660e01b815260040160206040518083038186803b1580156111b857600080fd5b505afa1580156111cc573d6000803e3d6000fd5b505050506040513d60208110156111e257600080fd5b8101908080519060200190929190505050915050919050565b600080600061120a8585611eba565b9050600460008261ffff1661ffff16815260200190815260200160002060030154600460008361ffff1661ffff1681526020019081526020016000206004015492509250509250929050565b606080600560008460ff1660ff168152602001908152602001600020600101600560008560ff1660ff168152602001908152602001600020600201818054806020026020016040519081016040528092919081815260200182805480156112dc57602002820191906000526020600020905b8154815260200190600101908083116112c8575b505050505091508080548060200260200160405190810160405280929190818152602001828054801561135457602002820191906000526020600020906000905b82829054906101000a900460ff1660ff168152602001906001019060208260000104928301926001038202915080841161131d5790505b5050505050905091509150915091565b60006002600381111561137357fe5b61137c8361148e565b600381111561138757fe5b1415806113b357506000600560008460ff1660ff16815260200190815260200160002060020180549050145b156113c15760009050611489565b6000600560008460ff1660ff1681526020019081526020016000206002016000815481106113eb57fe5b90600052602060002090602091828204019190069054906101000a900460ff16905060006114198483611eba565b9050600460008261ffff1661ffff16815260200190815260200160002060020160003373ffffffffffffffffffffffffffffffffffffffff1673ffffffffffffffffffffffffffffffffffffffff16815260200190815260200160002060009054906101000a900460ff16925050505b919050565b600080611499611011565b90508060ff168360ff1614156114b35760009150506114ec565b8060ff168360ff1611156114cb5760039150506114ec565b6001810360ff168360ff1614156114e65760019150506114ec565b60029150505b919050565b60025481565b60008061150383611ed5565b61151057809150506118e8565b6060600560008560ff1660ff16815260200190815260200160002060020180548060200260200160405190810160405280929190818152602001828054801561159e57602002820191906000526020600020906000905b82829054906101000a900460ff1660ff16815260200190600101906020826000010492830192600103820291508084116115675790505b5050505050905060008151141561172e5760006115bc856000611eba565b905060005b6000805490508161ffff16101561172257600015156004600084840161ffff1661ffff16815260200190815260200160002060020160003373ffffffffffffffffffffffffffffffffffffffff1673ffffffffffffffffffffffffffffffffffffffff16815260200190815260200160002060009054906101000a900460ff1615151480156116ad575060006004600084840161ffff1661ffff16815260200190815260200160002060010160003373ffffffffffffffffffffffffffffffffffffffff1673ffffffffffffffffffffffffffffffffffffffff16815260200190815260200160002054115b15611715576004600083830161ffff1661ffff16815260200190815260200160002060010160003373ffffffffffffffffffffffffffffffffffffffff1673ffffffffffffffffffffffffffffffffffffffff16815260200190815260200160002054840193505b80806001019150506115c1565b508293505050506118e8565b600061174e858360008151811061174157fe5b6020026020010151611eba565b9050600460008261ffff1661ffff16815260200190815260200160002060020160003373ffffffffffffffffffffffffffffffffffffffff1673ffffffffffffffffffffffffffffffffffffffff16815260200190815260200160002060009054906101000a900460ff168061181f57506000600460008361ffff1661ffff16815260200190815260200160002060010160003373ffffffffffffffffffffffffffffffffffffffff1673ffffffffffffffffffffffffffffffffffffffff16815260200190815260200160002054145b1561182f578293505050506118e8565b6000600560008760ff1660ff1681526020019081526020016000206000015490506000600460008461ffff1661ffff16815260200190815260200160002060000154905060008183600460008761ffff1661ffff16815260200190815260200160002060010160003373ffffffffffffffffffffffffffffffffffffffff1673ffffffffffffffffffffffffffffffffffffffff1681526020019081526020016000205402816118db57fe5b0490508096505050505050505b919050565b6000600560008360ff1660ff168152602001908152602001600020600001549050919050565b6000805490508260ff1610611973576040517f08c379a000000000000000000000000000000000000000000000000000000000815260040180806020018281038252602681526020018061251d6026913960400191505060405180910390fd5b600081116119e9576040517f08c379a000000000000000000000000000000000000000000000000000000000815260040180806020018281038252601f8152602001807f53686f756c6420696e73657274206120706f73697469766520616d6f756e740081525060200191505060405180910390fd5b80600160009054906101000a900473ffffffffffffffffffffffffffffffffffffffff1673ffffffffffffffffffffffffffffffffffffffff166370a08231336040518263ffffffff1660e01b8152600401808273ffffffffffffffffffffffffffffffffffffffff16815260200191505060206040518083038186803b158015611a7357600080fd5b505afa158015611a87573d6000803e3d6000fd5b505050506040513d6020811015611a9d57600080fd5b810190808051906020019092919050505010158015611b9d575080600160009054906101000a900473ffffffffffffffffffffffffffffffffffffffff1673ffffffffffffffffffffffffffffffffffffffff1663dd62ed3e33306040518363ffffffff1660e01b8152600401808373ffffffffffffffffffffffffffffffffffffffff1681526020018273ffffffffffffffffffffffffffffffffffffffff1681526020019250505060206040518083038186803b158015611b5f57600080fd5b505afa158015611b73573d6000803e3d6000fd5b505050506040513d6020811015611b8957600080fd5b810190808051906020019092919050505010155b611c0f576040517f08c379a00000000000000000000000000000000000000000000000000000000081526004018080602001828103825260168152602001807f53686f756c64206861766520656e6f756768206461690000000000000000000081525060200191505060405180910390fd5b600160009054906101000a900473ffffffffffffffffffffffffffffffffffffffff1673ffffffffffffffffffffffffffffffffffffffff166323b872dd3330846040518463ffffffff1660e01b8152600401808473ffffffffffffffffffffffffffffffffffffffff1681526020018373ffffffffffffffffffffffffffffffffffffffff1681526020018281526020019350505050602060405180830381600087803b158015611cc057600080fd5b505af1158015611cd4573d6000803e3d6000fd5b505050506040513d6020811015611cea57600080fd5b8101908080519060200190929190505050506000611d06611011565b90506000611d148285611eba565b905082600460008361ffff1661ffff1681526020019081526020016000206000016000828254019250508190555082600460008361ffff1661ffff16815260200190815260200160002060010160003373ffffffffffffffffffffffffffffffffffffffff1673ffffffffffffffffffffffffffffffffffffffff168152602001908152602001600020600082825401925050819055506000600460008361ffff1661ffff16815260200190815260200160002060020160003373ffffffffffffffffffffffffffffffffffffffff1673ffffffffffffffffffffffffffffffffffffffff16815260200190815260200160002060006101000a81548160ff02191690831515021790555082600560008460ff1660ff168152602001908152602001600020600001600082825401925050819055507f3c442d4091d4b2a2178f7e7f6dc2c28cc9a8487d95d2238f8430aa386c538a2482853386604051808560ff1681526020018460ff1681526020018373ffffffffffffffffffffffffffffffffffffffff16815260200182815260200194505050505060405180910390a150505050565b60008160ff1660088460ff1661ffff16901b17905092915050565b600080611ee3836000611eba565b90506000600460008361ffff1661ffff168152602001908152602001600020600401541415915050919050565b600080828403905060008312158015611f295750838113155b80611f3f5750600083128015611f3e57508381135b5b611f94576040517f08c379a00000000000000000000000000000000000000000000000000000000081526004018080602001828103825260248152602001806125b36024913960400191505060405180910390fd5b8091505092915050565b600080831415611fb157600090506120c2565b7fffffffffffffffffffffffffffffffffffffffffffffffffffffffffffffffff83148015611fff57507f800000000000000000000000000000000000000000000000000000000000000082145b15612055576040517f08c379a00000000000000000000000000000000000000000000000000000000081526004018080602001828103825260278152602001806125646027913960400191505060405180910390fd5b600082840290508284828161206657fe5b05146120bd576040517f08c379a00000000000000000000000000000000000000000000000000000000081526004018080602001828103825260278152602001806125646027913960400191505060405180910390fd5b809150505b92915050565b600080821415612140576040517f08c379a00000000000000000000000000000000000000000000000000000000081526004018080602001828103825260208152602001807f5369676e6564536166654d6174683a206469766973696f6e206279207a65726f81525060200191505060405180910390fd5b7fffffffffffffffffffffffffffffffffffffffffffffffffffffffffffffffff8214801561218e57507f800000000000000000000000000000000000000000000000000000000000000083145b156121e4576040517f08c379a00000000000000000000000000000000000000000000000000000000081526004018080602001828103825260218152602001806125436021913960400191505060405180910390fd5b60008284816121ef57fe5b0590508091505092915050565b606080825167ffffffffffffffff8111801561221757600080fd5b506040519080825280602002602001820160405280156122465781602001602082028036833780820191505090505b5090506060835167ffffffffffffffff8111801561226357600080fd5b506040519080825280602002602001820160405280156122925781602001602082028036833780820191505090505b50905060005b84518160ff161015612360576000805b8260ff168160ff16101561232d57868360ff16815181106122c557fe5b6020026020010151878260ff16815181106122dc57fe5b602002602001015113156122f7578180600101925050612320565b848160ff168151811061230657fe5b60200260200101805180919060010160ff1660ff16815250505b80806001019150506122a8565b5080848360ff168151811061233e57fe5b602002602001019060ff16908160ff1681525050508080600101915050612298565b5060005b82518160ff1610156123b7578082848360ff168151811061238157fe5b602002602001015160ff168151811061239657fe5b602002602001019060ff16908160ff16815250508080600101915050612364565b508092505050919050565b60405180606001604052806000815260200160008152602001600081525090565b82805482825590600052602060002090810192821561241f579160200282015b8281111561241e578251825591602001919060010190612403565b5b50905061242c91906124d7565b5090565b82805482825590600052602060002090601f016020900481019282156124c65791602002820160005b8382111561249757835183826101000a81548160ff021916908360ff1602179055509260200192600101602081600001049283019260010302612459565b80156124c45782816101000a81549060ff0219169055600101602081600001049283019260010302612497565b505b5090506124d391906124f4565b5090565b5b808211156124f05760008160009055506001016124d8565b5090565b5b8082111561251857600081816101000a81549060ff0219169055506001016124f5565b509056fe53686f756c6420696e7365727420612076616c696420746f6b656e206964656e7469666965725369676e6564536166654d6174683a206469766973696f6e206f766572666c6f775369676e6564536166654d6174683a206d756c7469706c69636174696f6e206f766572666c6f774164647265737320686173206e6f206265747320696e207468652077696e6e696e6720746f6b656e5369676e6564536166654d6174683a207375627472616374696f6e206f766572666c6f77a264697066735822122090b146cb5b98a525079ca10a728759858f57de30c5d26df56f4f3f641fdfcb7064736f6c634300060c0033",
  "immutableReferences": {},
  "source": "pragma solidity >=0.6.0 <0.7.0;\n// pragma experimental ABIEncoderV2;\n\nimport \"@chainlink/contracts/src/v0.6/interfaces/AggregatorInterface.sol\";\nimport \"@openzeppelin/contracts/math/SafeMath.sol\";\nimport \"@openzeppelin/contracts/math/SignedSafeMath.sol\";\nimport \"./Dai.sol\";\n\n// Adapted from https://github.com/stampery-labs/witnet-tokenprice-example-contracts/blob/master/contracts/TokenPriceContest.sol\ncontract Bet {\n    using SignedSafeMath for int256;\n    using SafeMath for uint256;\n    using SafeMath for uint8;\n\n    // Chainlink token refs\n    AggregatorInterface[] internal chainlinkTokenRefs;\n\n    // DAI token ref\n    IDai internal dai;\n\n    // Event emitted when a bet is placed by a contest participant\n    event BetPlaced(uint8 day, uint8 tokenId, address sender, uint256 value);\n\n    // Timestamp (as seconds since unix epoch) from which the constest starts counting (to enable certain operations)\n    uint256 public firstDay;\n\n    // Time period for each contest\n    uint256 public contestPeriod;\n\n    // States define the action allowed in the current contest window\n    enum DayState {BET, DRAWING, PAYOUT, INVALID}\n\n    // Structure with token participations in a contest period (e.g. day)\n    struct TokenDay {\n        uint256 totalAmount;\n        mapping(address => uint256) participations;\n        mapping(address => bool) paid;\n        int256 startPrice;\n        int256 endPrice;\n    }\n\n    // Mapping of token participations\n    // Key: `uint16` contains two uint8 refering to day||TokenId\n    mapping(uint16 => TokenDay) bets;\n\n    // Structure with all the current bets information in a contest period (e.g. day)\n    struct DayInfo {\n        // total prize for a day\n        uint256 grandPrize;\n        // token perfs percentages\n        int256[] perfs;\n        // ordered ranking after result has been resolved\n        uint8[] ranking;\n    }\n\n    // Mapping of day infos\n    mapping(uint8 => DayInfo) dayInfos;\n\n    /// @dev Creates a Token Prize Contest\n    /// @param _firstDay timestamp of contest start time\n    /// @param _contestPeriod time period (in seconds) of each contest window (e.g. a day)\n    constructor(\n        uint256 _firstDay,\n        uint256 _contestPeriod,\n        address _dai,\n        address[] memory _chainlinkTokenAddresses\n    ) public {\n        firstDay = _firstDay;\n        contestPeriod = _contestPeriod;\n        dai = IDai(_dai);\n\n        chainlinkTokenRefs = new AggregatorInterface[](\n            _chainlinkTokenAddresses.length\n        );\n        for (uint8 i = 0; i < _chainlinkTokenAddresses.length; i++) {\n            chainlinkTokenRefs[i] = AggregatorInterface(\n                _chainlinkTokenAddresses[i]\n            );\n        }\n    }\n\n    /// @dev Places a bet on a token identifier\n    /// @param _tokenId token identifier\n    function placeBet(uint8 _tokenId, uint256 amt) public {\n        require(\n            _tokenId < chainlinkTokenRefs.length,\n            \"Should insert a valid token identifier\"\n        );\n        require(amt > 0, \"Should insert a positive amount\");\n        require(\n            dai.balanceOf(msg.sender) >= amt &&\n                dai.allowance(msg.sender, address(this)) >= amt,\n            \"Should have enough dai\"\n        );\n        dai.transferFrom(msg.sender, address(this), amt);\n\n        // Calculate the day of the current bet\n        uint8 betDay = getCurrentDay();\n        // Create Bet: u8Concat\n        uint16 betId = u8Concat(betDay, _tokenId);\n\n        // Upsert Bets mapping (day||tokenId) with TokenDay\n        bets[betId].totalAmount += amt;\n        bets[betId].participations[msg.sender] += amt;\n        bets[betId].paid[msg.sender] = false;\n\n        // Upsert DayInfo (day)\n        dayInfos[betDay].grandPrize += amt;\n\n        emit BetPlaced(betDay, _tokenId, msg.sender, amt);\n    }\n\n    /// @dev Pays out upon data request resolution (i.e. state should be `PAYOUT`)\n    /// @param _day contest day of the payout\n    function payout(uint8 _day) public payable {\n        require(\n            getDayState(_day) == DayState.PAYOUT,\n            \"Should be in PAYOUT state\"\n        );\n\n        // Result not okay, payout participations\n        if (!getDayHasResults(_day)) {\n            uint16 offset = u8Concat(_day, 0);\n            for (uint16 i = 0; i < chainlinkTokenRefs.length; i++) {\n                if (\n                    bets[i + offset].paid[msg.sender] == false &&\n                    bets[i + offset].participations[msg.sender] > 0\n                ) {\n                    bets[i + offset].paid[msg.sender] = true;\n                    dai.transfer(\n                        msg.sender,\n                        bets[i + offset].participations[msg.sender]\n                    );\n                }\n            }\n        } else {\n            // Result is Ok (payout to winners)\n            // Check legit payout\n            uint16 dayTokenId = u8Concat(_day, dayInfos[_day].ranking[0]);\n            require(\n                bets[dayTokenId].paid[msg.sender] == false,\n                \"Address already paid\"\n            );\n            require(\n                bets[dayTokenId].participations[msg.sender] > 0,\n                \"Address has no bets in the winning token\"\n            );\n            // Prize calculation\n            uint256 grandPrize = dayInfos[_day].grandPrize;\n            uint256 winnerAmount = bets[dayTokenId].totalAmount;\n            uint256 prize = (bets[dayTokenId].participations[msg.sender] *\n                grandPrize) / winnerAmount;\n            // Set paid flag and Transfer\n            bets[dayTokenId].paid[msg.sender] = true;\n            dai.transfer(msg.sender, prize);\n        }\n    }\n\n    /// @dev Gets the timestamp of the current block as seconds since unix epoch\n    /// @return timestamp\n    function getTimestamp() public virtual returns (uint256) {\n        return block.timestamp;\n    }\n\n    /// @dev Gets ranking from Witnet Bridge Interface in case that results are still not written into the contract\n    /// @param _day contest day of the payout\n    function getDayRankingFromChainlink(uint8 _day)\n        public\n        view\n        returns (int256[] memory, uint8[] memory)\n    {\n        // int256[] memory requestResult = new int256[](chainlinkTokenRefs.length);\n        // for (uint8 i = 0; i < chainlinkTokenRefs.length; i++) {\n        //     uint16 betId = u8Concat(_day, i);\n        //     TokenDay memory bet = bets[betId];\n        //     int256 perf = 0;\n        //     if (bet.startPrice != 0 && bet.endPrice != 0) {\n        //         perf = (bet.endPrice.sub(bet.startPrice))\n        //             .div(bet.startPrice)\n        //             .mul(100);\n        //     }\n        //     requestResult[i] = perf;\n        // }\n        // return (requestResult, rank(requestResult));\n        return (dayInfos[_day].perfs, dayInfos[_day].ranking);\n    }\n\n    function saveCurrentDayRankingFromChainlink() public {\n        uint8 betDay = getCurrentDay();\n        for (uint8 i = 0; i < chainlinkTokenRefs.length; i++) {\n            uint16 betId = u8Concat(betDay, i);\n            int256 latest = getLatestTokenPrice(i);\n            if (bets[betId].startPrice == 0) {\n                bets[betId].startPrice = latest;\n            } else {\n                bets[betId].endPrice = latest;\n            }\n        }\n\n        int256[] memory requestResult = new int256[](chainlinkTokenRefs.length);\n        for (uint8 i = 0; i < chainlinkTokenRefs.length; i++) {\n            uint16 betId = u8Concat(betDay, i);\n            TokenDay memory bet = bets[betId];\n            int256 perf = 0;\n            if (bet.startPrice != 0 && bet.endPrice != 0) {\n                perf = ((bet.endPrice.sub(bet.startPrice)).mul(1000000)).div(\n                    bet.startPrice\n                );\n            }\n            requestResult[i] = perf;\n        }\n\n        dayInfos[betDay].perfs = requestResult;\n        dayInfos[betDay].ranking = rank(requestResult);\n    }\n\n    function getLatestTokenPrice(uint256 tokenId)\n        public\n        virtual\n        returns (int256)\n    {\n        AggregatorInterface ref = chainlinkTokenRefs[tokenId];\n        return ref.latestAnswer();\n    }\n\n    function getDayTokenPrices(uint8 _day, uint8 _tokenId)\n        public\n        virtual\n        returns (int256, int256)\n    {\n        uint16 betId = u8Concat(_day, _tokenId);\n        return (bets[betId].startPrice, bets[betId].endPrice);\n    }\n\n    /// @dev Gets a contest day state\n    /// @param _day contest day\n    /// @return day state\n    function getDayState(uint8 _day) public returns (DayState) {\n        uint8 currentDay = getCurrentDay();\n        if (_day == currentDay) {\n            return DayState.BET;\n        } else if (_day > currentDay) {\n            // Bet in the future\n            return DayState.INVALID;\n        } else if (_day == currentDay - 1) {\n            // Drawing day\n            return DayState.DRAWING;\n        } else {\n            // BetDay is in the past\n            return DayState.PAYOUT;\n        }\n    }\n\n    /// @dev Reads the total amount bet for a day and a token identifier\n    /// @param _day contest day\n    /// @param _tokenId token identifier\n    /// @return total amount of bets\n    function getTotalAmountTokenDay(uint8 _day, uint8 _tokenId)\n        public\n        view\n        returns (uint256)\n    {\n        return bets[u8Concat(_day, _tokenId)].totalAmount;\n    }\n\n    /// @dev Reads the participations of the sender for a given day\n    /// @param _day contest day\n    /// @return array with the participations for each token\n    function getMyBetsDay(uint8 _day) public view returns (uint256[] memory) {\n        uint256[] memory results = new uint256[](chainlinkTokenRefs.length);\n        for (uint8 i = 0; i < chainlinkTokenRefs.length; i++) {\n            results[i] = bets[u8Concat(_day, i)].participations[msg.sender];\n        }\n        return results;\n    }\n\n    function getMyDayWins(uint8 _day) public view returns (uint256) {\n        uint256 amount;\n        // Data request is not yet resolved or is still beeing resolved within Witnet\n        if (!getDayHasResults(_day)) {\n            return amount;\n        }\n\n        // Data request is already in WBI or in the contract\n        uint8[] memory ranking = dayInfos[_day].ranking;\n\n        // Empty ranking -> return back participations\n        if (ranking.length == 0) {\n            // Data request with ERROR -> return money to all participants\n            uint16 offset = u8Concat(_day, 0);\n            for (uint16 i = 0; i < chainlinkTokenRefs.length; i++) {\n                if (\n                    bets[i + offset].paid[msg.sender] == false &&\n                    bets[i + offset].participations[msg.sender] > 0\n                ) {\n                    // bets[i+offset].paid[msg.sender] = true;\n                    amount += bets[i + offset].participations[msg.sender];\n                }\n            }\n            return amount;\n        }\n\n        // Ranking available -> compute prize for participant\n        uint16 dayTokenId = u8Concat(_day, ranking[0]);\n        // Already paid or not participated\n        if (\n            bets[dayTokenId].paid[msg.sender] ||\n            bets[dayTokenId].participations[msg.sender] == 0\n        ) {\n            return amount;\n        }\n        // Prize calculation\n        uint256 grandPrize = dayInfos[_day].grandPrize;\n        uint256 winnerAmount = bets[dayTokenId].totalAmount;\n        uint256 prize = (bets[dayTokenId].participations[msg.sender] *\n            grandPrize) / winnerAmount;\n\n        return prize;\n    }\n\n    function getMyDayPaid(uint8 _day) public returns (bool) {\n        if (\n            getDayState(_day) != DayState.PAYOUT ||\n            dayInfos[_day].ranking.length == 0\n        ) {\n            return false;\n        }\n        uint8 tokenId = dayInfos[_day].ranking[0];\n        uint16 betId = u8Concat(_day, tokenId);\n        return bets[betId].paid[msg.sender];\n    }\n\n    /// @dev Reads day information\n    /// @param _day contest day\n    /// @return day info structure\n    function getDayGrandPrize(uint8 _day) public view returns (uint256) {\n        return dayInfos[_day].grandPrize;\n    }\n\n    /// @dev Read last block timestamp and calculate difference with firstDay timestamp\n    /// @return index of current day\n    function getCurrentDay() public returns (uint8) {\n        uint256 timestamp = getTimestamp();\n        uint256 daysDiff = (timestamp - firstDay) / contestPeriod;\n        return uint8(daysDiff);\n    }\n\n    function getDayHasResults(uint8 _day) private view returns (bool) {\n        uint16 betId = u8Concat(_day, 0);\n        return bets[betId].endPrice != 0;\n    }\n\n    /// @dev Concatenates two `uint8`\n    /// @param _l left component\n    /// @param _r right component\n    /// @return _l||_r\n    function u8Concat(uint8 _l, uint8 _r) internal pure returns (uint16) {\n        return (uint16(_l) << 8) | _r;\n    }\n\n    /// @dev Ranks a given input array\n    /// @param input array to be ordered\n    /// @return ordered array\n    function rank(int256[] memory input)\n        internal\n        pure\n        returns (uint8[] memory)\n    {\n        // Ranks the given input array\n        uint8[] memory ranked = new uint8[](input.length);\n        uint8[] memory result = new uint8[](input.length);\n\n        for (uint8 i = 0; i < input.length; i++) {\n            uint8 curRank = 0;\n            for (uint8 j = 0; j < i; j++) {\n                if (input[j] > input[i]) {\n                    curRank++;\n                } else {\n                    ranked[j]++;\n                }\n            }\n            ranked[i] = curRank;\n        }\n\n        for (uint8 i = 0; i < ranked.length; i++) {\n            result[ranked[i]] = i;\n        }\n        return result;\n    }\n}\n",
  "sourcePath": "/Users/vb/Documents/src/github.com/vbstreetz/crypto-bet/backend/contracts/Bet.sol",
  "compiler": {
    "name": "solc",
    "version": "0.6.12+commit.27d51765.Emscripten.clang"
  },
  "schemaVersion": "3.2.2",
  "updatedAt": "2020-07-26T05:13:41.590Z",
  "networkType": "ethereum",
  "devdoc": {
    "kind": "dev",
    "methods": {
      "constructor": {
        "details": "Creates a Token Prize Contest",
        "params": {
          "_contestPeriod": "time period (in seconds) of each contest window (e.g. a day)",
          "_firstDay": "timestamp of contest start time"
        }
      },
      "getCurrentDay()": {
        "details": "Read last block timestamp and calculate difference with firstDay timestamp",
        "returns": {
          "_0": "index of current day"
        }
      },
      "getDayGrandPrize(uint8)": {
        "details": "Reads day information",
        "params": {
          "_day": "contest day"
        },
        "returns": {
          "_0": "day info structure"
        }
      },
      "getDayRankingFromChainlink(uint8)": {
        "details": "Gets ranking from Witnet Bridge Interface in case that results are still not written into the contract",
        "params": {
          "_day": "contest day of the payout"
        }
      },
      "getDayState(uint8)": {
        "details": "Gets a contest day state",
        "params": {
          "_day": "contest day"
        },
        "returns": {
          "_0": "day state"
        }
      },
      "getMyBetsDay(uint8)": {
        "details": "Reads the participations of the sender for a given day",
        "params": {
          "_day": "contest day"
        },
        "returns": {
          "_0": "array with the participations for each token"
        }
      },
      "getTimestamp()": {
        "details": "Gets the timestamp of the current block as seconds since unix epoch",
        "returns": {
          "_0": "timestamp"
        }
      },
      "getTotalAmountTokenDay(uint8,uint8)": {
        "details": "Reads the total amount bet for a day and a token identifier",
        "params": {
          "_day": "contest day",
          "_tokenId": "token identifier"
        },
        "returns": {
          "_0": "total amount of bets"
        }
      },
      "payout(uint8)": {
        "details": "Pays out upon data request resolution (i.e. state should be `PAYOUT`)",
        "params": {
          "_day": "contest day of the payout"
        }
      },
      "placeBet(uint8,uint256)": {
        "details": "Places a bet on a token identifier",
        "params": {
          "_tokenId": "token identifier"
        }
      }
    },
    "version": 1
  },
  "userdoc": {
    "kind": "user",
    "methods": {},
    "version": 1
  }
}