{
  "contractName": "Bet",
  "abi": [
    {
      "inputs": [
        {
          "internalType": "uint256",
          "name": "_firstDay",
          "type": "uint256"
        },
        {
          "internalType": "uint256",
          "name": "_contestPeriod",
          "type": "uint256"
        },
        {
          "internalType": "address",
          "name": "_dai",
          "type": "address"
        },
        {
          "internalType": "address[]",
          "name": "_chainlinkTokenAddresses",
          "type": "address[]"
        }
      ],
      "stateMutability": "nonpayable",
      "type": "constructor"
    },
    {
      "anonymous": false,
      "inputs": [
        {
          "indexed": false,
          "internalType": "uint8",
          "name": "day",
          "type": "uint8"
        },
        {
          "indexed": false,
          "internalType": "uint8",
          "name": "tokenId",
          "type": "uint8"
        },
        {
          "indexed": false,
          "internalType": "address",
          "name": "sender",
          "type": "address"
        },
        {
          "indexed": false,
          "internalType": "uint256",
          "name": "value",
          "type": "uint256"
        }
      ],
      "name": "BetPlaced",
      "type": "event"
    },
    {
      "inputs": [],
      "name": "contestPeriod",
      "outputs": [
        {
          "internalType": "uint256",
          "name": "",
          "type": "uint256"
        }
      ],
      "stateMutability": "view",
      "type": "function",
      "constant": true
    },
    {
      "inputs": [],
      "name": "firstDay",
      "outputs": [
        {
          "internalType": "uint256",
          "name": "",
          "type": "uint256"
        }
      ],
      "stateMutability": "view",
      "type": "function",
      "constant": true
    },
    {
      "inputs": [
        {
          "internalType": "uint8",
          "name": "_tokenId",
          "type": "uint8"
        },
        {
          "internalType": "uint256",
          "name": "amt",
          "type": "uint256"
        }
      ],
      "name": "placeBet",
      "outputs": [],
      "stateMutability": "nonpayable",
      "type": "function"
    },
    {
      "inputs": [
        {
          "internalType": "uint8",
          "name": "_day",
          "type": "uint8"
        }
      ],
      "name": "payout",
      "outputs": [],
      "stateMutability": "payable",
      "type": "function",
      "payable": true
    },
    {
      "inputs": [],
      "name": "getTimestamp",
      "outputs": [
        {
          "internalType": "uint256",
          "name": "",
          "type": "uint256"
        }
      ],
      "stateMutability": "nonpayable",
      "type": "function"
    },
    {
      "inputs": [
        {
          "internalType": "uint8",
          "name": "_day",
          "type": "uint8"
        }
      ],
      "name": "getDayRanking",
      "outputs": [
        {
          "internalType": "uint8[]",
          "name": "",
          "type": "uint8[]"
        }
      ],
      "stateMutability": "view",
      "type": "function",
      "constant": true
    },
    {
      "inputs": [
        {
          "internalType": "uint8",
          "name": "_day",
          "type": "uint8"
        }
      ],
      "name": "getDayPerfs",
      "outputs": [
        {
          "internalType": "int256[]",
          "name": "",
          "type": "int256[]"
        }
      ],
      "stateMutability": "view",
      "type": "function",
      "constant": true
    },
    {
      "inputs": [],
      "name": "saveCurrentDayRankingFromChainlink",
      "outputs": [],
      "stateMutability": "nonpayable",
      "type": "function"
    },
    {
      "inputs": [
        {
          "internalType": "uint256",
          "name": "tokenId",
          "type": "uint256"
        }
      ],
      "name": "getLatestTokenPrice",
      "outputs": [
        {
          "internalType": "int256",
          "name": "",
          "type": "int256"
        }
      ],
      "stateMutability": "nonpayable",
      "type": "function"
    },
    {
      "inputs": [
        {
          "internalType": "uint8",
          "name": "_day",
          "type": "uint8"
        },
        {
          "internalType": "uint8",
          "name": "_tokenId",
          "type": "uint8"
        }
      ],
      "name": "getDayTokenPrices",
      "outputs": [
        {
          "internalType": "int256",
          "name": "",
          "type": "int256"
        },
        {
          "internalType": "int256",
          "name": "",
          "type": "int256"
        }
      ],
      "stateMutability": "nonpayable",
      "type": "function"
    },
    {
      "inputs": [
        {
          "internalType": "uint8",
          "name": "_day",
          "type": "uint8"
        }
      ],
      "name": "getDayState",
      "outputs": [
        {
          "internalType": "enum Bet.DayState",
          "name": "",
          "type": "uint8"
        }
      ],
      "stateMutability": "nonpayable",
      "type": "function"
    },
    {
      "inputs": [
        {
          "internalType": "uint8",
          "name": "_day",
          "type": "uint8"
        },
        {
          "internalType": "uint8",
          "name": "_tokenId",
          "type": "uint8"
        }
      ],
      "name": "getTotalAmountTokenDay",
      "outputs": [
        {
          "internalType": "uint256",
          "name": "",
          "type": "uint256"
        }
      ],
      "stateMutability": "view",
      "type": "function",
      "constant": true
    },
    {
      "inputs": [
        {
          "internalType": "uint8",
          "name": "_day",
          "type": "uint8"
        }
      ],
      "name": "getMyBetsDay",
      "outputs": [
        {
          "internalType": "uint256[]",
          "name": "",
          "type": "uint256[]"
        }
      ],
      "stateMutability": "view",
      "type": "function",
      "constant": true
    },
    {
      "inputs": [
        {
          "internalType": "uint8",
          "name": "_day",
          "type": "uint8"
        }
      ],
      "name": "getMyDayWins",
      "outputs": [
        {
          "internalType": "uint256",
          "name": "",
          "type": "uint256"
        }
      ],
      "stateMutability": "view",
      "type": "function",
      "constant": true
    },
    {
      "inputs": [
        {
          "internalType": "uint8",
          "name": "_day",
          "type": "uint8"
        }
      ],
      "name": "getMyDayPaid",
      "outputs": [
        {
          "internalType": "bool",
          "name": "",
          "type": "bool"
        }
      ],
      "stateMutability": "nonpayable",
      "type": "function"
    },
    {
      "inputs": [
        {
          "internalType": "uint8",
          "name": "_day",
          "type": "uint8"
        }
      ],
      "name": "getDayGrandPrize",
      "outputs": [
        {
          "internalType": "uint256",
          "name": "",
          "type": "uint256"
        }
      ],
      "stateMutability": "view",
      "type": "function",
      "constant": true
    },
    {
      "inputs": [],
      "name": "getCurrentDay",
      "outputs": [
        {
          "internalType": "uint8",
          "name": "",
          "type": "uint8"
        }
      ],
      "stateMutability": "nonpayable",
      "type": "function"
    }
  ],
  "bytecode": "0x60806040523480156200001157600080fd5b506040516200297d3803806200297d833981810160405260808110156200003757600080fd5b81019080805190602001909291908051906020019092919080519060200190929190805160405193929190846401000000008211156200007657600080fd5b838201915060208201858111156200008d57600080fd5b8251866020820283011164010000000082111715620000ab57600080fd5b8083526020830192505050908051906020019060200280838360005b83811015620000e4578082015181840152602081019050620000c7565b50505050905001604052505050836002819055508260038190555081600160006101000a81548173ffffffffffffffffffffffffffffffffffffffff021916908373ffffffffffffffffffffffffffffffffffffffff160217905550805167ffffffffffffffff811180156200015957600080fd5b50604051908082528060200260200182016040528015620001895781602001602082028036833780820191505090505b5060009080519060200190620001a19291906200023c565b5060005b81518160ff1610156200023157818160ff1681518110620001c257fe5b602002602001015160008260ff1681548110620001db57fe5b9060005260206000200160006101000a81548173ffffffffffffffffffffffffffffffffffffffff021916908373ffffffffffffffffffffffffffffffffffffffff1602179055508080600101915050620001a5565b505050505062000308565b828054828255906000526020600020908101928215620002b8579160200282015b82811115620002b75782518260006101000a81548173ffffffffffffffffffffffffffffffffffffffff021916908373ffffffffffffffffffffffffffffffffffffffff160217905550916020019190600101906200025d565b5b509050620002c79190620002cb565b5090565b5b808211156200030457600081816101000a81549073ffffffffffffffffffffffffffffffffffffffff021916905550600101620002cc565b5090565b61266580620003186000396000f3fe6080604052600436106100fe5760003560e01c80635739e27d11610095578063cf1405fe11610064578063cf1405fe146104ba578063d96fe97d146104e5578063d9b0270114610537578063dcb3b30e14610589578063e064dff2146105d1576100fe565b80635739e27d1461035457806393f63d25146103a3578063a6c9fcd914610409578063b00bee711461045d576100fe565b806323784527116100d157806323784527146101e9578063391187311461027c5780633e6968b614610293578063481a117a146102c1576100fe565b8063071a2b52146101035780630e6b97521461012e578063153f2b4b1461018d578063188ec356146101be575b600080fd5b34801561010f57600080fd5b50610118610664565b6040518082815260200191505060405180910390f35b34801561013a57600080fd5b506101776004803603604081101561015157600080fd5b81019080803560ff169060200190929190803560ff16906020019092919050505061066a565b6040518082815260200191505060405180910390f35b6101bc600480360360208110156101a357600080fd5b81019080803560ff16906020019092919050505061069c565b005b3480156101ca57600080fd5b506101d3610ddc565b6040518082815260200191505060405180910390f35b3480156101f557600080fd5b506102256004803603602081101561020c57600080fd5b81019080803560ff169060200190929190505050610de4565b6040518080602001828103825283818151815260200191508051906020019060200280838360005b8381101561026857808201518184015260208101905061024d565b505050509050019250505060405180910390f35b34801561028857600080fd5b50610291610e58565b005b34801561029f57600080fd5b506102a86110de565b604051808260ff16815260200191505060405180910390f35b3480156102cd57600080fd5b506102fd600480360360208110156102e457600080fd5b81019080803560ff169060200190929190505050611107565b6040518080602001828103825283818151815260200191508051906020019060200280838360005b83811015610340578082015181840152602081019050610325565b505050509050019250505060405180910390f35b34801561036057600080fd5b5061038d6004803603602081101561037757600080fd5b8101908080359060200190929190505050611202565b6040518082815260200191505060405180910390f35b3480156103af57600080fd5b506103ec600480360360408110156103c657600080fd5b81019080803560ff169060200190929190803560ff1690602001909291905050506112c8565b604051808381526020018281526020019250505060405180910390f35b34801561041557600080fd5b506104456004803603602081101561042c57600080fd5b81019080803560ff169060200190929190505050611323565b60405180821515815260200191505060405180910390f35b34801561046957600080fd5b506104996004803603602081101561048057600080fd5b81019080803560ff16906020019092919050505061144d565b604051808260038111156104a957fe5b815260200191505060405180910390f35b3480156104c657600080fd5b506104cf6114b0565b6040518082815260200191505060405180910390f35b3480156104f157600080fd5b506105216004803603602081101561050857600080fd5b81019080803560ff1690602001909291905050506114b6565b6040518082815260200191505060405180910390f35b34801561054357600080fd5b506105736004803603602081101561055a57600080fd5b81019080803560ff1690602001909291905050506118ac565b6040518082815260200191505060405180910390f35b34801561059557600080fd5b506105cf600480360360408110156105ac57600080fd5b81019080803560ff169060200190929190803590602001909291905050506118d2565b005b3480156105dd57600080fd5b5061060d600480360360208110156105f457600080fd5b81019080803560ff169060200190929190505050611e79565b6040518080602001828103825283818151815260200191508051906020019060200280838360005b83811015610650578082015181840152602081019050610635565b505050509050019250505060405180910390f35b60035481565b60006004600061067a8585611f13565b61ffff1661ffff16815260200190815260200160002060000154905092915050565b600260038111156106a957fe5b6106b28261144d565b60038111156106bd57fe5b14610730576040517f08c379a00000000000000000000000000000000000000000000000000000000081526004018080602001828103825260198152602001807f53686f756c6420626520696e205041594f55542073746174650000000000000081525060200191505060405180910390fd5b61073981611f2e565b6109f757600061074a826000611f13565b905060005b6000805490508161ffff1610156109f057600015156004600084840161ffff1661ffff16815260200190815260200160002060020160003373ffffffffffffffffffffffffffffffffffffffff1673ffffffffffffffffffffffffffffffffffffffff16815260200190815260200160002060009054906101000a900460ff16151514801561083b575060006004600084840161ffff1661ffff16815260200190815260200160002060010160003373ffffffffffffffffffffffffffffffffffffffff1673ffffffffffffffffffffffffffffffffffffffff16815260200190815260200160002054115b156109e35760016004600084840161ffff1661ffff16815260200190815260200160002060020160003373ffffffffffffffffffffffffffffffffffffffff1673ffffffffffffffffffffffffffffffffffffffff16815260200190815260200160002060006101000a81548160ff021916908315150217905550600160009054906101000a900473ffffffffffffffffffffffffffffffffffffffff1673ffffffffffffffffffffffffffffffffffffffff1663a9059cbb336004600086860161ffff1661ffff16815260200190815260200160002060010160003373ffffffffffffffffffffffffffffffffffffffff1673ffffffffffffffffffffffffffffffffffffffff168152602001908152602001600020546040518363ffffffff1660e01b8152600401808373ffffffffffffffffffffffffffffffffffffffff16815260200182815260200192505050602060405180830381600087803b1580156109a657600080fd5b505af11580156109ba573d6000803e3d6000fd5b505050506040513d60208110156109d057600080fd5b8101908080519060200190929190505050505b808060010191505061074f565b5050610dd9565b6000610a4a82600560008560ff1660ff168152602001908152602001600020600201600081548110610a2557fe5b90600052602060002090602091828204019190069054906101000a900460ff16611f13565b905060001515600460008361ffff1661ffff16815260200190815260200160002060020160003373ffffffffffffffffffffffffffffffffffffffff1673ffffffffffffffffffffffffffffffffffffffff16815260200190815260200160002060009054906101000a900460ff16151514610b2e576040517f08c379a00000000000000000000000000000000000000000000000000000000081526004018080602001828103825260148152602001807f4164647265737320616c7265616479207061696400000000000000000000000081525060200191505060405180910390fd5b6000600460008361ffff1661ffff16815260200190815260200160002060010160003373ffffffffffffffffffffffffffffffffffffffff1673ffffffffffffffffffffffffffffffffffffffff1681526020019081526020016000205411610be2576040517f08c379a00000000000000000000000000000000000000000000000000000000081526004018080602001828103825260288152602001806125e46028913960400191505060405180910390fd5b6000600560008460ff1660ff1681526020019081526020016000206000015490506000600460008461ffff1661ffff16815260200190815260200160002060000154905060008183600460008761ffff1661ffff16815260200190815260200160002060010160003373ffffffffffffffffffffffffffffffffffffffff1673ffffffffffffffffffffffffffffffffffffffff168152602001908152602001600020540281610c8e57fe5b0490506001600460008661ffff1661ffff16815260200190815260200160002060020160003373ffffffffffffffffffffffffffffffffffffffff1673ffffffffffffffffffffffffffffffffffffffff16815260200190815260200160002060006101000a81548160ff021916908315150217905550600160009054906101000a900473ffffffffffffffffffffffffffffffffffffffff1673ffffffffffffffffffffffffffffffffffffffff1663a9059cbb33836040518363ffffffff1660e01b8152600401808373ffffffffffffffffffffffffffffffffffffffff16815260200182815260200192505050602060405180830381600087803b158015610d9857600080fd5b505af1158015610dac573d6000803e3d6000fd5b505050506040513d6020811015610dc257600080fd5b810190808051906020019092919050505050505050505b50565b600042905090565b6060600560008360ff1660ff168152602001908152602001600020600101805480602002602001604051908101604052809291908181526020018280548015610e4c57602002820191906000526020600020905b815481526020019060010190808311610e38575b50505050509050919050565b60006001610e646110de565b03905060005b6000805490508160ff161015610f1a576000610e868383611f13565b90506000610e968360ff16611202565b90506000600460008461ffff1661ffff168152602001908152602001600020600301541415610ee75780600460008461ffff1661ffff16815260200190815260200160002060030181905550610f0b565b80600460008461ffff1661ffff168152602001908152602001600020600401819055505b50508080600101915050610e6a565b50606060008054905067ffffffffffffffff81118015610f3957600080fd5b50604051908082528060200260200182016040528015610f685781602001602082028036833780820191505090505b50905060005b6000805490508160ff16101561106f576000610f8a8483611f13565b9050610f9461241b565b600460008361ffff1661ffff16815260200190815260200160002060405180606001604052908160008201548152602001600382015481526020016004820154815250509050600080826020015114158015610ff557506000826040015114155b15611043576110408260200151611032620f424061102486602001518760400151611f6990919063ffffffff16565b611ff790919063ffffffff16565b61212190919063ffffffff16565b90505b80858560ff168151811061105357fe5b6020026020010181815250505050508080600101915050610f6e565b5080600560008460ff1660ff16815260200190815260200160002060010190805190602001906110a092919061243c565b506110aa81612255565b600560008460ff1660ff16815260200190815260200160002060020190805190602001906110d9929190612489565b505050565b6000806110e9610ddc565b905060006003546002548303816110fc57fe5b049050809250505090565b60608060008054905067ffffffffffffffff8111801561112657600080fd5b506040519080825280602002602001820160405280156111555781602001602082028036833780820191505090505b50905060005b6000805490508160ff1610156111f857600460006111798684611f13565b61ffff1661ffff16815260200190815260200160002060010160003373ffffffffffffffffffffffffffffffffffffffff1673ffffffffffffffffffffffffffffffffffffffff16815260200190815260200160002054828260ff16815181106111df57fe5b602002602001018181525050808060010191505061115b565b5080915050919050565b6000806000838154811061121257fe5b9060005260206000200160009054906101000a900473ffffffffffffffffffffffffffffffffffffffff1690508073ffffffffffffffffffffffffffffffffffffffff166350d25bcd6040518163ffffffff1660e01b815260040160206040518083038186803b15801561128557600080fd5b505afa158015611299573d6000803e3d6000fd5b505050506040513d60208110156112af57600080fd5b8101908080519060200190929190505050915050919050565b60008060006112d78585611f13565b9050600460008261ffff1661ffff16815260200190815260200160002060030154600460008361ffff1661ffff1681526020019081526020016000206004015492509250509250929050565b60006002600381111561133257fe5b61133b8361144d565b600381111561134657fe5b14158061137257506000600560008460ff1660ff16815260200190815260200160002060020180549050145b156113805760009050611448565b6000600560008460ff1660ff1681526020019081526020016000206002016000815481106113aa57fe5b90600052602060002090602091828204019190069054906101000a900460ff16905060006113d88483611f13565b9050600460008261ffff1661ffff16815260200190815260200160002060020160003373ffffffffffffffffffffffffffffffffffffffff1673ffffffffffffffffffffffffffffffffffffffff16815260200190815260200160002060009054906101000a900460ff16925050505b919050565b6000806114586110de565b90508060ff168360ff1614156114725760009150506114ab565b8060ff168360ff16111561148a5760039150506114ab565b6001810360ff168360ff1614156114a55760019150506114ab565b60029150505b919050565b60025481565b6000806114c283611f2e565b6114cf57809150506118a7565b6060600560008560ff1660ff16815260200190815260200160002060020180548060200260200160405190810160405280929190818152602001828054801561155d57602002820191906000526020600020906000905b82829054906101000a900460ff1660ff16815260200190600101906020826000010492830192600103820291508084116115265790505b505050505090506000815114156116ed57600061157b856000611f13565b905060005b6000805490508161ffff1610156116e157600015156004600084840161ffff1661ffff16815260200190815260200160002060020160003373ffffffffffffffffffffffffffffffffffffffff1673ffffffffffffffffffffffffffffffffffffffff16815260200190815260200160002060009054906101000a900460ff16151514801561166c575060006004600084840161ffff1661ffff16815260200190815260200160002060010160003373ffffffffffffffffffffffffffffffffffffffff1673ffffffffffffffffffffffffffffffffffffffff16815260200190815260200160002054115b156116d4576004600083830161ffff1661ffff16815260200190815260200160002060010160003373ffffffffffffffffffffffffffffffffffffffff1673ffffffffffffffffffffffffffffffffffffffff16815260200190815260200160002054840193505b8080600101915050611580565b508293505050506118a7565b600061170d858360008151811061170057fe5b6020026020010151611f13565b9050600460008261ffff1661ffff16815260200190815260200160002060020160003373ffffffffffffffffffffffffffffffffffffffff1673ffffffffffffffffffffffffffffffffffffffff16815260200190815260200160002060009054906101000a900460ff16806117de57506000600460008361ffff1661ffff16815260200190815260200160002060010160003373ffffffffffffffffffffffffffffffffffffffff1673ffffffffffffffffffffffffffffffffffffffff16815260200190815260200160002054145b156117ee578293505050506118a7565b6000600560008760ff1660ff1681526020019081526020016000206000015490506000600460008461ffff1661ffff16815260200190815260200160002060000154905060008183600460008761ffff1661ffff16815260200190815260200160002060010160003373ffffffffffffffffffffffffffffffffffffffff1673ffffffffffffffffffffffffffffffffffffffff16815260200190815260200160002054028161189a57fe5b0490508096505050505050505b919050565b6000600560008360ff1660ff168152602001908152602001600020600001549050919050565b6000805490508260ff1610611932576040517f08c379a00000000000000000000000000000000000000000000000000000000081526004018080602001828103825260268152602001806125766026913960400191505060405180910390fd5b600081116119a8576040517f08c379a000000000000000000000000000000000000000000000000000000000815260040180806020018281038252601f8152602001807f53686f756c6420696e73657274206120706f73697469766520616d6f756e740081525060200191505060405180910390fd5b80600160009054906101000a900473ffffffffffffffffffffffffffffffffffffffff1673ffffffffffffffffffffffffffffffffffffffff166370a08231336040518263ffffffff1660e01b8152600401808273ffffffffffffffffffffffffffffffffffffffff16815260200191505060206040518083038186803b158015611a3257600080fd5b505afa158015611a46573d6000803e3d6000fd5b505050506040513d6020811015611a5c57600080fd5b810190808051906020019092919050505010158015611b5c575080600160009054906101000a900473ffffffffffffffffffffffffffffffffffffffff1673ffffffffffffffffffffffffffffffffffffffff1663dd62ed3e33306040518363ffffffff1660e01b8152600401808373ffffffffffffffffffffffffffffffffffffffff1681526020018273ffffffffffffffffffffffffffffffffffffffff1681526020019250505060206040518083038186803b158015611b1e57600080fd5b505afa158015611b32573d6000803e3d6000fd5b505050506040513d6020811015611b4857600080fd5b810190808051906020019092919050505010155b611bce576040517f08c379a00000000000000000000000000000000000000000000000000000000081526004018080602001828103825260168152602001807f53686f756c64206861766520656e6f756768206461690000000000000000000081525060200191505060405180910390fd5b600160009054906101000a900473ffffffffffffffffffffffffffffffffffffffff1673ffffffffffffffffffffffffffffffffffffffff166323b872dd3330846040518463ffffffff1660e01b8152600401808473ffffffffffffffffffffffffffffffffffffffff1681526020018373ffffffffffffffffffffffffffffffffffffffff1681526020018281526020019350505050602060405180830381600087803b158015611c7f57600080fd5b505af1158015611c93573d6000803e3d6000fd5b505050506040513d6020811015611ca957600080fd5b8101908080519060200190929190505050506000611cc56110de565b90506000611cd38285611f13565b905082600460008361ffff1661ffff1681526020019081526020016000206000016000828254019250508190555082600460008361ffff1661ffff16815260200190815260200160002060010160003373ffffffffffffffffffffffffffffffffffffffff1673ffffffffffffffffffffffffffffffffffffffff168152602001908152602001600020600082825401925050819055506000600460008361ffff1661ffff16815260200190815260200160002060020160003373ffffffffffffffffffffffffffffffffffffffff1673ffffffffffffffffffffffffffffffffffffffff16815260200190815260200160002060006101000a81548160ff02191690831515021790555082600560008460ff1660ff168152602001908152602001600020600001600082825401925050819055507f3c442d4091d4b2a2178f7e7f6dc2c28cc9a8487d95d2238f8430aa386c538a2482853386604051808560ff1681526020018460ff1681526020018373ffffffffffffffffffffffffffffffffffffffff16815260200182815260200194505050505060405180910390a150505050565b6060600560008360ff1660ff168152602001908152602001600020600201805480602002602001604051908101604052809291908181526020018280548015611f0757602002820191906000526020600020906000905b82829054906101000a900460ff1660ff1681526020019060010190602082600001049283019260010382029150808411611ed05790505b50505050509050919050565b60008160ff1660088460ff1661ffff16901b17905092915050565b600080611f3c836000611f13565b90506000600460008361ffff1661ffff168152602001908152602001600020600401541415915050919050565b600080828403905060008312158015611f825750838113155b80611f985750600083128015611f9757508381135b5b611fed576040517f08c379a000000000000000000000000000000000000000000000000000000000815260040180806020018281038252602481526020018061260c6024913960400191505060405180910390fd5b8091505092915050565b60008083141561200a576000905061211b565b7fffffffffffffffffffffffffffffffffffffffffffffffffffffffffffffffff8314801561205857507f800000000000000000000000000000000000000000000000000000000000000082145b156120ae576040517f08c379a00000000000000000000000000000000000000000000000000000000081526004018080602001828103825260278152602001806125bd6027913960400191505060405180910390fd5b60008284029050828482816120bf57fe5b0514612116576040517f08c379a00000000000000000000000000000000000000000000000000000000081526004018080602001828103825260278152602001806125bd6027913960400191505060405180910390fd5b809150505b92915050565b600080821415612199576040517f08c379a00000000000000000000000000000000000000000000000000000000081526004018080602001828103825260208152602001807f5369676e6564536166654d6174683a206469766973696f6e206279207a65726f81525060200191505060405180910390fd5b7fffffffffffffffffffffffffffffffffffffffffffffffffffffffffffffffff821480156121e757507f800000000000000000000000000000000000000000000000000000000000000083145b1561223d576040517f08c379a000000000000000000000000000000000000000000000000000000000815260040180806020018281038252602181526020018061259c6021913960400191505060405180910390fd5b600082848161224857fe5b0590508091505092915050565b606080825167ffffffffffffffff8111801561227057600080fd5b5060405190808252806020026020018201604052801561229f5781602001602082028036833780820191505090505b5090506060835167ffffffffffffffff811180156122bc57600080fd5b506040519080825280602002602001820160405280156122eb5781602001602082028036833780820191505090505b50905060005b84518160ff1610156123b9576000805b8260ff168160ff16101561238657868360ff168151811061231e57fe5b6020026020010151878260ff168151811061233557fe5b60200260200101511315612350578180600101925050612379565b848160ff168151811061235f57fe5b60200260200101805180919060010160ff1660ff16815250505b8080600101915050612301565b5080848360ff168151811061239757fe5b602002602001019060ff16908160ff16815250505080806001019150506122f1565b5060005b82518160ff161015612410578082848360ff16815181106123da57fe5b602002602001015160ff16815181106123ef57fe5b602002602001019060ff16908160ff168152505080806001019150506123bd565b508092505050919050565b60405180606001604052806000815260200160008152602001600081525090565b828054828255906000526020600020908101928215612478579160200282015b8281111561247757825182559160200191906001019061245c565b5b5090506124859190612530565b5090565b82805482825590600052602060002090601f0160209004810192821561251f5791602002820160005b838211156124f057835183826101000a81548160ff021916908360ff16021790555092602001926001016020816000010492830192600103026124b2565b801561251d5782816101000a81549060ff02191690556001016020816000010492830192600103026124f0565b505b50905061252c919061254d565b5090565b5b80821115612549576000816000905550600101612531565b5090565b5b8082111561257157600081816101000a81549060ff02191690555060010161254e565b509056fe53686f756c6420696e7365727420612076616c696420746f6b656e206964656e7469666965725369676e6564536166654d6174683a206469766973696f6e206f766572666c6f775369676e6564536166654d6174683a206d756c7469706c69636174696f6e206f766572666c6f774164647265737320686173206e6f206265747320696e207468652077696e6e696e6720746f6b656e5369676e6564536166654d6174683a207375627472616374696f6e206f766572666c6f77a2646970667358221220410d6421f1a0b41902073f6a4ded1d439630645f4a39eb78f0a0ad47159f166664736f6c634300060c0033",
  "immutableReferences": {},
  "source": "pragma solidity >=0.6.0 <0.7.0;\n// pragma experimental ABIEncoderV2;\n\nimport \"@chainlink/contracts/src/v0.6/interfaces/AggregatorInterface.sol\";\nimport \"@openzeppelin/contracts/math/SafeMath.sol\";\nimport \"@openzeppelin/contracts/math/SignedSafeMath.sol\";\nimport \"./Dai.sol\";\n\n// Adapted from https://github.com/stampery-labs/witnet-tokenprice-example-contracts/blob/master/contracts/TokenPriceContest.sol\ncontract Bet {\n    using SignedSafeMath for int256;\n    using SafeMath for uint256;\n    using SafeMath for uint8;\n\n    // Chainlink token refs\n    AggregatorInterface[] internal chainlinkTokenRefs;\n\n    // DAI token ref\n    IDai internal dai;\n\n    // Event emitted when a bet is placed by a contest participant\n    event BetPlaced(uint8 day, uint8 tokenId, address sender, uint256 value);\n\n    // Timestamp (as seconds since unix epoch) from which the constest starts counting (to enable certain operations)\n    uint256 public firstDay;\n\n    // Time period for each contest\n    uint256 public contestPeriod;\n\n    // States define the action allowed in the current contest window\n    enum DayState {BET, DRAWING, PAYOUT, INVALID}\n\n    // Structure with token participations in a contest period (e.g. day)\n    struct TokenDay {\n        uint256 totalAmount;\n        mapping(address => uint256) participations;\n        mapping(address => bool) paid;\n        int256 startPrice;\n        int256 endPrice;\n    }\n\n    // Mapping of token participations\n    // Key: `uint16` contains two uint8 refering to day||TokenId\n    mapping(uint16 => TokenDay) bets;\n\n    // Structure with all the current bets information in a contest period (e.g. day)\n    struct DayInfo {\n        // total prize for a day\n        uint256 grandPrize;\n        // token perfs percentages\n        int256[] perfs;\n        // ordered ranking after result has been resolved\n        uint8[] ranking;\n    }\n\n    // Mapping of day infos\n    mapping(uint8 => DayInfo) dayInfos;\n\n    /// @dev Creates a Token Prize Contest\n    /// @param _firstDay timestamp of contest start time\n    /// @param _contestPeriod time period (in seconds) of each contest window (e.g. a day)\n    constructor(\n        uint256 _firstDay,\n        uint256 _contestPeriod,\n        address _dai,\n        address[] memory _chainlinkTokenAddresses\n    ) public {\n        firstDay = _firstDay;\n        contestPeriod = _contestPeriod;\n        dai = IDai(_dai);\n\n        chainlinkTokenRefs = new AggregatorInterface[](\n            _chainlinkTokenAddresses.length\n        );\n        for (uint8 i = 0; i < _chainlinkTokenAddresses.length; i++) {\n            chainlinkTokenRefs[i] = AggregatorInterface(\n                _chainlinkTokenAddresses[i]\n            );\n        }\n    }\n\n    /// @dev Places a bet on a token identifier\n    /// @param _tokenId token identifier\n    function placeBet(uint8 _tokenId, uint256 amt) public {\n        require(\n            _tokenId < chainlinkTokenRefs.length,\n            \"Should insert a valid token identifier\"\n        );\n        require(amt > 0, \"Should insert a positive amount\");\n        require(\n            dai.balanceOf(msg.sender) >= amt &&\n                dai.allowance(msg.sender, address(this)) >= amt,\n            \"Should have enough dai\"\n        );\n        dai.transferFrom(msg.sender, address(this), amt);\n\n        // Calculate the day of the current bet\n        uint8 betDay = getCurrentDay();\n        // Create Bet: u8Concat\n        uint16 betId = u8Concat(betDay, _tokenId);\n\n        // Upsert Bets mapping (day||tokenId) with TokenDay\n        bets[betId].totalAmount += amt;\n        bets[betId].participations[msg.sender] += amt;\n        bets[betId].paid[msg.sender] = false;\n\n        // Upsert DayInfo (day)\n        dayInfos[betDay].grandPrize += amt;\n\n        emit BetPlaced(betDay, _tokenId, msg.sender, amt);\n    }\n\n    /// @dev Pays out upon data request resolution (i.e. state should be `PAYOUT`)\n    /// @param _day contest day of the payout\n    function payout(uint8 _day) public payable {\n        require(\n            getDayState(_day) == DayState.PAYOUT,\n            \"Should be in PAYOUT state\"\n        );\n\n        // Result not okay, payout participations\n        if (!getDayHasResults(_day)) {\n            uint16 offset = u8Concat(_day, 0);\n            for (uint16 i = 0; i < chainlinkTokenRefs.length; i++) {\n                if (\n                    bets[i + offset].paid[msg.sender] == false &&\n                    bets[i + offset].participations[msg.sender] > 0\n                ) {\n                    bets[i + offset].paid[msg.sender] = true;\n                    dai.transfer(\n                        msg.sender,\n                        bets[i + offset].participations[msg.sender]\n                    );\n                }\n            }\n        } else {\n            // Result is Ok (payout to winners)\n            // Check legit payout\n            uint16 dayTokenId = u8Concat(_day, dayInfos[_day].ranking[0]);\n            require(\n                bets[dayTokenId].paid[msg.sender] == false,\n                \"Address already paid\"\n            );\n            require(\n                bets[dayTokenId].participations[msg.sender] > 0,\n                \"Address has no bets in the winning token\"\n            );\n            // Prize calculation\n            uint256 grandPrize = dayInfos[_day].grandPrize;\n            uint256 winnerAmount = bets[dayTokenId].totalAmount;\n            uint256 prize = (bets[dayTokenId].participations[msg.sender] *\n                grandPrize) / winnerAmount;\n            // Set paid flag and Transfer\n            bets[dayTokenId].paid[msg.sender] = true;\n            dai.transfer(msg.sender, prize);\n        }\n    }\n\n    /// @dev Gets the timestamp of the current block as seconds since unix epoch\n    /// @return timestamp\n    function getTimestamp() public virtual returns (uint256) {\n        return block.timestamp;\n    }\n\n    function getDayRanking(uint8 _day) public view returns (uint8[] memory) {\n        return dayInfos[_day].ranking;\n    }\n\n    function getDayPerfs(uint8 _day) public view returns (int256[] memory) {\n        return dayInfos[_day].perfs;\n    }\n\n    function saveCurrentDayRankingFromChainlink() public {\n        uint8 betDay = getCurrentDay() - 1;\n        for (uint8 i = 0; i < chainlinkTokenRefs.length; i++) {\n            uint16 betId = u8Concat(betDay, i);\n            int256 latest = getLatestTokenPrice(i);\n            if (bets[betId].startPrice == 0) {\n                bets[betId].startPrice = latest;\n            } else {\n                bets[betId].endPrice = latest;\n            }\n        }\n\n        int256[] memory requestResult = new int256[](chainlinkTokenRefs.length);\n        for (uint8 i = 0; i < chainlinkTokenRefs.length; i++) {\n            uint16 betId = u8Concat(betDay, i);\n            TokenDay memory bet = bets[betId];\n            int256 perf = 0;\n            if (bet.startPrice != 0 && bet.endPrice != 0) {\n                perf = ((bet.endPrice.sub(bet.startPrice)).mul(1000000)).div(\n                    bet.startPrice\n                );\n            }\n            requestResult[i] = perf;\n        }\n\n        dayInfos[betDay].perfs = requestResult;\n        dayInfos[betDay].ranking = rank(requestResult);\n    }\n\n    function getLatestTokenPrice(uint256 tokenId)\n        public\n        virtual\n        returns (int256)\n    {\n        AggregatorInterface ref = chainlinkTokenRefs[tokenId];\n        return ref.latestAnswer();\n    }\n\n    function getDayTokenPrices(uint8 _day, uint8 _tokenId)\n        public\n        virtual\n        returns (int256, int256)\n    {\n        uint16 betId = u8Concat(_day, _tokenId);\n        return (bets[betId].startPrice, bets[betId].endPrice);\n    }\n\n    /// @dev Gets a contest day state\n    /// @param _day contest day\n    /// @return day state\n    function getDayState(uint8 _day) public returns (DayState) {\n        uint8 currentDay = getCurrentDay();\n        if (_day == currentDay) {\n            return DayState.BET;\n        } else if (_day > currentDay) {\n            // Bet in the future\n            return DayState.INVALID;\n        } else if (_day == currentDay - 1) {\n            // Drawing day\n            return DayState.DRAWING;\n        } else {\n            // BetDay is in the past\n            return DayState.PAYOUT;\n        }\n    }\n\n    /// @dev Reads the total amount bet for a day and a token identifier\n    /// @param _day contest day\n    /// @param _tokenId token identifier\n    /// @return total amount of bets\n    function getTotalAmountTokenDay(uint8 _day, uint8 _tokenId)\n        public\n        view\n        returns (uint256)\n    {\n        return bets[u8Concat(_day, _tokenId)].totalAmount;\n    }\n\n    /// @dev Reads the participations of the sender for a given day\n    /// @param _day contest day\n    /// @return array with the participations for each token\n    function getMyBetsDay(uint8 _day) public view returns (uint256[] memory) {\n        uint256[] memory results = new uint256[](chainlinkTokenRefs.length);\n        for (uint8 i = 0; i < chainlinkTokenRefs.length; i++) {\n            results[i] = bets[u8Concat(_day, i)].participations[msg.sender];\n        }\n        return results;\n    }\n\n    function getMyDayWins(uint8 _day) public view returns (uint256) {\n        uint256 amount;\n        // Data request is not yet resolved or is still beeing resolved within Witnet\n        if (!getDayHasResults(_day)) {\n            return amount;\n        }\n\n        // Data request is already in WBI or in the contract\n        uint8[] memory ranking = dayInfos[_day].ranking;\n\n        // Empty ranking -> return back participations\n        if (ranking.length == 0) {\n            // Data request with ERROR -> return money to all participants\n            uint16 offset = u8Concat(_day, 0);\n            for (uint16 i = 0; i < chainlinkTokenRefs.length; i++) {\n                if (\n                    bets[i + offset].paid[msg.sender] == false &&\n                    bets[i + offset].participations[msg.sender] > 0\n                ) {\n                    // bets[i+offset].paid[msg.sender] = true;\n                    amount += bets[i + offset].participations[msg.sender];\n                }\n            }\n            return amount;\n        }\n\n        // Ranking available -> compute prize for participant\n        uint16 dayTokenId = u8Concat(_day, ranking[0]);\n        // Already paid or not participated\n        if (\n            bets[dayTokenId].paid[msg.sender] ||\n            bets[dayTokenId].participations[msg.sender] == 0\n        ) {\n            return amount;\n        }\n        // Prize calculation\n        uint256 grandPrize = dayInfos[_day].grandPrize;\n        uint256 winnerAmount = bets[dayTokenId].totalAmount;\n        uint256 prize = (bets[dayTokenId].participations[msg.sender] *\n            grandPrize) / winnerAmount;\n\n        return prize;\n    }\n\n    function getMyDayPaid(uint8 _day) public returns (bool) {\n        if (\n            getDayState(_day) != DayState.PAYOUT ||\n            dayInfos[_day].ranking.length == 0\n        ) {\n            return false;\n        }\n        uint8 tokenId = dayInfos[_day].ranking[0];\n        uint16 betId = u8Concat(_day, tokenId);\n        return bets[betId].paid[msg.sender];\n    }\n\n    /// @dev Reads day information\n    /// @param _day contest day\n    /// @return day info structure\n    function getDayGrandPrize(uint8 _day) public view returns (uint256) {\n        return dayInfos[_day].grandPrize;\n    }\n\n    /// @dev Read last block timestamp and calculate difference with firstDay timestamp\n    /// @return index of current day\n    function getCurrentDay() public returns (uint8) {\n        uint256 timestamp = getTimestamp();\n        uint256 daysDiff = (timestamp - firstDay) / contestPeriod;\n        return uint8(daysDiff);\n    }\n\n    function getDayHasResults(uint8 _day) private view returns (bool) {\n        uint16 betId = u8Concat(_day, 0);\n        return bets[betId].endPrice != 0;\n    }\n\n    /// @dev Concatenates two `uint8`\n    /// @param _l left component\n    /// @param _r right component\n    /// @return _l||_r\n    function u8Concat(uint8 _l, uint8 _r) internal pure returns (uint16) {\n        return (uint16(_l) << 8) | _r;\n    }\n\n    /// @dev Ranks a given input array\n    /// @param input array to be ordered\n    /// @return ordered array\n    function rank(int256[] memory input)\n        internal\n        pure\n        returns (uint8[] memory)\n    {\n        // Ranks the given input array\n        uint8[] memory ranked = new uint8[](input.length);\n        uint8[] memory result = new uint8[](input.length);\n\n        for (uint8 i = 0; i < input.length; i++) {\n            uint8 curRank = 0;\n            for (uint8 j = 0; j < i; j++) {\n                if (input[j] > input[i]) {\n                    curRank++;\n                } else {\n                    ranked[j]++;\n                }\n            }\n            ranked[i] = curRank;\n        }\n\n        for (uint8 i = 0; i < ranked.length; i++) {\n            result[ranked[i]] = i;\n        }\n        return result;\n    }\n}\n",
  "sourcePath": "/Users/vb/Documents/src/github.com/vbstreetz/crypto-bet/backend/contracts/Bet.sol",
  "compiler": {
    "name": "solc",
    "version": "0.6.12+commit.27d51765.Emscripten.clang"
  },
  "schemaVersion": "3.2.2",
  "updatedAt": "2020-07-27T00:09:35.688Z",
  "networkType": "ethereum",
  "devdoc": {
    "kind": "dev",
    "methods": {
      "constructor": {
        "details": "Creates a Token Prize Contest",
        "params": {
          "_contestPeriod": "time period (in seconds) of each contest window (e.g. a day)",
          "_firstDay": "timestamp of contest start time"
        }
      },
      "getCurrentDay()": {
        "details": "Read last block timestamp and calculate difference with firstDay timestamp",
        "returns": {
          "_0": "index of current day"
        }
      },
      "getDayGrandPrize(uint8)": {
        "details": "Reads day information",
        "params": {
          "_day": "contest day"
        },
        "returns": {
          "_0": "day info structure"
        }
      },
      "getDayState(uint8)": {
        "details": "Gets a contest day state",
        "params": {
          "_day": "contest day"
        },
        "returns": {
          "_0": "day state"
        }
      },
      "getMyBetsDay(uint8)": {
        "details": "Reads the participations of the sender for a given day",
        "params": {
          "_day": "contest day"
        },
        "returns": {
          "_0": "array with the participations for each token"
        }
      },
      "getTimestamp()": {
        "details": "Gets the timestamp of the current block as seconds since unix epoch",
        "returns": {
          "_0": "timestamp"
        }
      },
      "getTotalAmountTokenDay(uint8,uint8)": {
        "details": "Reads the total amount bet for a day and a token identifier",
        "params": {
          "_day": "contest day",
          "_tokenId": "token identifier"
        },
        "returns": {
          "_0": "total amount of bets"
        }
      },
      "payout(uint8)": {
        "details": "Pays out upon data request resolution (i.e. state should be `PAYOUT`)",
        "params": {
          "_day": "contest day of the payout"
        }
      },
      "placeBet(uint8,uint256)": {
        "details": "Places a bet on a token identifier",
        "params": {
          "_tokenId": "token identifier"
        }
      }
    },
    "version": 1
  },
  "userdoc": {
    "kind": "user",
    "methods": {},
    "version": 1
  }
}